:020000040800F2
:10000000B806002059010008BD120008BD10000804
:1000100000000000000000000000000000000000E0
:10002000000000000000000000000000451500086E
:1000300000000000000000004315000847150008FC
:100040006B010008000000006B0100086B01000854
:100050006B0100086B01000897040008A104000868
:10006000000000006B0100086B0100086B01000834
:100070006B0100086B0100086B0100080000000024
:100080006B0100086B010008000000006B01000814
:100090006B0100086B0100086B0100086B01000890
:1000A0006B0100086B0100086B0100086B01000880
:1000B0006B01000800F002F800F03EF80CA030C818
:1000C000083824182D18A246671EAB4654465D46D4
:1000D000AC4201D100F030F87E460F3E0FCCB64660
:1000E0000126334200D0FB1AA246AB4633431847E1
:1000F000741E0000941E0000103A02D378C878C124
:10010000FAD8520701D330C830C101D504680C6059
:10011000704700000023002400250026103A01D378
:1001200078C1FBD8520700D330C100D50B607047AF
:100130001FB51FBD10B510BD00F07BF91146FFF7CC
:10014000F7FF01F0EFFB00F093F903B4FFF7F2FFC4
:1001500003BC00F099F900000748804707480047B2
:10016000FEE7FEE7FEE7FEE7FEE7FEE70448054997
:10017000054A064B70470000A5150008B5000008A9
:10018000B8000020B8060020B8020020B802002005
:10019000FEB5054610460C46184373D0AE468C4655
:1001A0000020AD1A01469C4167D366460027012412
:1001B0003D46B61A9D4102D313463A462124654670
:1001C00076462F04360C3E432D0CB61A9D4104D3BF
:1001D000150C1B042B4312041034654676462F067B
:1001E000360A3E432D0AB61A9D4104D3150E1B0252
:1001F0002B4312020834654676462F0736093E43E4
:100200002D09B61A9D4104D3150F1B012B43120172
:10021000241D65467646AF07B6083E43AD08B61ABC
:100220009D4104D3950F9B002B439200A41C65466F
:100230007646EF0776083E436D08B61A9D411AD3FD
:1002400092185B41641C16E00018764665464941E9
:10025000B71A9D410191009009D36046B11A9841A7
:100260008E468446009801990025401C6941DD07AF
:1002700052082A435B08641EE6D57246634603B003
:10028000F0BDFFE700200146C046C0462A4623468F
:10029000F5E701E004C0091F0429FBD28B0701D553
:1002A0000280801CC90700D00270704700290BD063
:1002B000C30702D00270401C491E022904D38307E1
:1002C00002D50280801C891EE3E70022EEE70022AF
:1002D000DFE7002203098B422CD3030A8B4211D3A0
:1002E00000239C464EE003460B433CD400224308C7
:1002F0008B4231D303098B421CD3030A8B4201D3B7
:1003000094463FE0C3098B4201D3CB01C01A52414E
:1003100083098B4201D38B01C01A524143098B429E
:1003200001D34B01C01A524103098B4201D30B0187
:10033000C01A5241C3088B4201D3CB00C01A5241AC
:1003400083088B4201D38B00C01A524143088B4271
:1003500001D34B00C01A5241411A00D2014652410A
:10036000104670475DE0CA0F00D04942031000D329
:100370004042534000229C4603098B422DD3030A7E
:100380008B4212D3FC22890112BA030A8B420CD38E
:10039000890192118B4208D3890192118B4204D3B7
:1003A00089013AD0921100E08909C3098B4201D337
:1003B000CB01C01A524183098B4201D38B01C01A71
:1003C000524143098B4201D34B01C01A52410309E8
:1003D0008B4201D30B01C01A5241C3088B4201D397
:1003E000CB00C01A524183088B4201D38B00C01A44
:1003F0005241D9D243088B4201D34B00C01A52411B
:10040000411A00D20146634652415B10104601D3A7
:100410004042002B00D54942704763465B1000D331
:10042000404201B50020C046C04602BD704770473B
:100430007047754600F024F8AE46050069465346FD
:10044000C008C000854618B020B5FFF78FFE60BC1D
:1004500000274908B6460026C0C5C0C5C0C5C0C5EE
:10046000C0C5C0C5C0C5C0C5403D49008D46704728
:1004700010B50446C046C0462046FFF766FE10BDD4
:10048000004870475800002001491820ABBEFEE725
:1004900026000200704710B5082000F019F810BDC2
:1004A00010B5402000F014F8802000F011F8012071
:1004B000400300F00DF80120800300F009F801204E
:1004C000C00300F005F810BD72B6FEE770470000EB
:1004D00010B504494A69024202D04861FFF7F6FFAD
:1004E00010BD000000040140F8B5002303240125DD
:1004F000BAE02E469E40B44632407CD00E79B60714
:10050000B60F012E01D0022E17D186682746B646B7
:100510005E00B74000967646BE43B646CF68009E62
:10052000B74076463743876046686746BE430F79D3
:10053000FF06FF0F9F40374347600E79F643B6072B
:100540000ED0C6682746B4465E00B646B74066463B
:10055000BE43B4468F687646B74066463743C760A9
:100560000E79B607B60F022E14D1DE08B600361883
:100570000096366A5F07B446FE0E0F27B646B740B0
:100580006646BE43B4460F697646B7406646374373
:10059000009E376206682746B4465E00B646B740FE
:1005A0006646BE430F79B446BF07BF0F7646B740D5
:1005B0006646374307604E68B603B60F53D02D4FDB
:1005C000BE692E43BE61BE699F08F607F60F2A4E2C
:1005D000BF00BE190096B6680F27B4469E07360FB7
:1005E000B646B7406646BE430927FF06B446B84242
:1005F00002D1002710E036E0204FB84201D1012798
:100600000AE01F4FB84201D1022705E01D4FB84252
:1006100001D1032700E005277646B74066463743F9
:10062000009EB760184E36684F689643FF0300D5AA
:100630001643154F3E607E684F689643BF0300D552
:100640001643114F7E60BE684F689643FF0200D587
:1006500016430D4FBE60FE684F689643BF0200D53B
:100660001643094AD6605B1C0A681646DE4000D075
:100670003FE7F8BD001002400000014000040048C0
:1006800000080048000C004800040140002A01D086
:10069000816170478162704701488068704700003F
:1006A0000000002002488168027889188160704744
:1006B0000000002010B506480168102211430160B7
:1006C000032000F007F800F027F8002010BD00001C
:1006D0000020024070B504460D4D7D202978C000F1
:1006E000FFF7F7FD01460B480068FFF7F2FD00F049
:1006F000BFFA002809D1042C07D200222146401E4F
:1007000000F02AF800206C6070BD012070BD000070
:10071000000000200C00002008B508488169012273
:1007200011438161816911400091C26901040A434A
:10073000C261C0690840009008BD0000001002407E
:10074000002805DBC106C90E012088400149086068
:100750007047000000E100E010B501F0C1F810BDE5
:10076000F8B50F46060059D03A4D2868C007C00FAB
:10077000B84209D2286840084000384328602868F9
:10078000C007C00FB84249D13068334C81070CD53F
:10079000400704D56068072109020843606060686B
:1007A000F0218843B168084360603078C00726D0E4
:1007B000706801280ED0216802280ED08907002910
:1007C0002CDA61688908890001436160FFF764FFE2
:1007D00000900DE021688903F1E78901EFE7FFF759
:1007E0005BFF0099411A1D48814201D90320F8BDE1
:1007F00060680C210840716889008842EFD1286840
:10080000C007C00FB8420BD92868400840003843E1
:1008100028602868C007C00FB84201D00120F8BD89
:100820003078400706D56068072109028843F168DF
:100830000843606000F018F86168094A0906090F6A
:10084000515CC840074908600320FFF743FF0020C0
:10085000F8BD000000200240001002408813000094
:10086000641900080C00002010B514A30FCB88B049
:100870006C460FC415A30FCB0FC4184A51680C2047
:100880000B4603401648042B16D0082B14D18B02BC
:100890001B0F6C46E45CD26A04AB1207120F9A5C21
:1008A000C90305D500231946FFF772FC214601E074
:1008B00020460C4900F0FCFF08B010BD02030405FF
:1008C000060708090A0B0C0D0E0F10100102030495
:1008D00005060708090A0B0C0D0E0F100010024048
:1008E00000127A0000093D00FEB5040070D02078A7
:1008F000DC4DC0074AD068680007800F012807D088
:1009000068680007800F022809D16868C00306D50F
:10091000286880033AD560680028E7D036E061682F
:10092000012914D001208004002901D0052914D008
:100930002A68012109048A432A60296881432960C1
:100940006068002816D0FFF7A7FE06460EE028686C
:100950000121090408432860F2E72968014329605E
:10096000F5E7FFF799FE801B64286ED8286880039E
:10097000F7D50BE0FFF790FE064604E0FFF78CFE8C
:10098000801B6428F1D828688003F7D420780126DA
:10099000800700283CDA68680007800F07D0686885
:1009A0000007800F022809D16868C00306D42868B0
:1009B000800716D5E06801280AD112E0E068002817
:1009C000286816D030432860FFF766FE074605E02A
:1009D00043E1FFF761FEC01B0228C6D828688007E4
:1009E000F7D52868F82188432169C90008432860A1
:1009F0000EE0400840002860FFF74EFE074604E086
:100A0000FFF74AFEC01B0228AFD828688007F7D43A
:100A10002078000722D5E0690028686A0ED03043AC
:100A20006862FFF739FE074604E0FFF735FEC01B9A
:100A300002289AD8686A8007F7D50FE0400840007E
:100A40006862FFF729FE074605E09DE0FFF724FEF8
:100A5000C01B022889D8686A8007F7D42078042749
:100A60004007002860DA00200190E869C00008D43F
:100A7000E969B8060143E961E96901400120009193
:100A8000019079480168C90511D4016882151143A4
:100A90000160FFF701FE009005E0FFF7FDFD009902
:100AA000401A642870D870480068C005F5D5A06861
:100AB00001280AD0002801D0052810D0286A400853
:100AC00040002862286AB84301E0286A304328625F
:100AD000A068002812D0FFF7DFFD00900AE0286A26
:100AE00038432862F1E7FFF7D7FD0099411A5F48C4
:100AF000814249D8286A8007F5D50DE0FFF7CCFD83
:100B0000009006E0FFF7C8FD0099411A574881425E
:100B10003AD8286A8007F5D40198002804D0E969FA
:100B2000012000078143E9612078C00635D560695E
:100B300001280CD0401D686B23D038436863686B74
:100B4000400840006863FFF7A7FD064622E0686B97
:100B500038436863686B30436863FFF79DFD064662
:100B600004E0FFF799FD801B02285BD8686B8007C3
:100B7000F7D5686BF8218843A169C9000843686309
:100B80000BE0B8436863F4E74CE0FFF785FD801B9A
:100B9000022847D8686B8007F7D4206A00285ED007
:100BA00069680907890F022942D001263606022802
:100BB000286805D0B0432860FFF76EFD044633E097
:100BC000B0432860FFF768FD074604E0FFF764FDC7
:100BD000C01B022826D828688001F7D4E86AE16A99
:100BE000000900010843E862616AA06A0843696875
:100BF0003D2212049143084368602868304328600E
:100C0000FFF74AFD044604E0FFF746FD001B0228FB
:100C100008D828688001F7D521E0FFF73DFD001BCB
:100C2000022801D90320FEBD28688001F5D416E012
:100C30000128F8D06868E96A01221204636A024058
:100C40009A420AD10907E26A090F914205D10F21A0
:100C500089040840A16A884201D00120FEBD00201D
:100C6000FEBD00000010024000700040881300002C
:100C7000094910B5401E884201D9012010BD074C1A
:100C800060610321081F00F02BFE0020A0610720F7
:100C90002061002010BD0000FFFFFF0000E000E029
:100CA00030B5034620331A7F012A26D001221A7755
:100CB0000325CA682D02AA438D6800242A43012512
:100CC000AD02AA434D6800682A430125ED02AA43FC
:100CD0000D682A4301252D03AA430D692A430125E6
:100CE0006D03AA434D69C9692A430125AD03AA438F
:100CF0000A4342641C77002030BD022030BD000052
:100D0000F0B502462032137F012B1ED00125157746
:100D10000223537706687468B3687027BC430F6872
:100D20002743776000680A4CA04205D0094CA042D6
:100D300002D0094CA04204D180244968A34319433E
:100D40008160557700201077F0BD0220F0BD0000D3
:100D5000002C0140000400400040014070B5040038
:100D600005D025462035687F002802D006E0012006
:100D700070BD00202877204600F014F80220687724
:100D8000211D206800F010FC01204034A071A877DC
:100D9000E87720706070A070E070207160716877F3
:100DA000002070BD08B500680549884207D1054894
:100DB0008269C1140A43826180690840009008BDBD
:100DC000002C014000100240F8B5054604462035CD
:100DD000287F0026012817D0012028770220687775
:100DE000226890687727FF23B8431B0298439060DE
:100DF0000868502838D00EDC20284FD006DC0028A8
:100E00004CD010281ED149E00220F8BD302845D032
:100E1000402817D13AE060282ED0702819D001223E
:100E20001203801A0FD090420CD1CB684A688968AF
:100E3000206800F00AFC20688168012292031143B7
:100E4000816000E001260120687700202877304685
:100E5000F8BDCB684A688968206800F0F6FB216815
:100E6000886838438860EEE7CA684968206800F0FF
:100E7000FBFC5021206806E0CA684968206800F041
:100E800004FD6021206800F0EBFBDCE7CA684968DC
:100E9000206800F0E9FC40212068F4E72268014660
:100EA0001046F0E710B586B0044614216846FFF7F7
:100EB0000EFA0F492068884217D10E484269012175
:100EC00049040A4342614069084005900F2000022E
:100ED00000900220002102910190032104900391CF
:100EE00009206946C006FFF7FFFA06B010BD0000F2
:100EF000002C014000100240F8B50646044620369A
:100F0000307F00270D4601280ED001203077002ABF
:100F10000CD0042A1BD0082A2FD00C2A3ED001273F
:100F2000002030773846F8BD0220F8BD206800F078
:100F30009FFB2068816908221143816120688269D2
:100F400004218A438261206881692A6912E020684D
:100F500000F0D2FB206882690121C9020A43826144
:100F60002068816901229202914381612068816930
:100F70002A69120211438161D2E7206800F0FCFB6C
:100F80002068C16908221143C1612068C269042137
:100F90008A43C2612068C1692A6912E0206800F0B2
:100FA0002DFC2068C1690122D2021143C161206871
:100FB000C269012189028A43C2612068C1692A6924
:100FC00012021143C161ABE770B5040005D025469C
:100FD0002035687F002802D006E0012070BD002087
:100FE0002877204600F014F802206877211D206839
:100FF00000F0DAFA01204034A071A877E877207079
:101000006070A070E070207160716877002070BD22
:101010007047000030B504460222203000290AD073
:1010200004290DD02046403008290ED04378012BEA
:1010300010D0012030BD837F012BFAD182770AE0E6
:10104000C37F012BF5D1C27705E00378012BF0D1E6
:10105000027000E042700122206800F0E9FA1249B3
:101060002068124B884207D0984205D0104A90421F
:1010700002D0104A904204D1426C0125ED032A436C
:10108000426420680122884204D00B49884201D082
:10109000984204D181684907490F062902D00168A6
:1010A00011430160002030BD002C01400040014090
:1010B000004401400048014000040040FEE70000F9
:1010C00070B586B014216846FFF701F933484269CC
:1010D0000121C9040A43426142690A4005924269FA
:1010E000C9000A43426142690A40059242690911F6
:1010F0000A43426142690A400592426949100A4323
:1011000042614069274E084005900122244930463B
:10111000FFF7BCFA072021244003240401256A4676
:1011200031C269462048FFF7DFF904200090032010
:1011300003900195029569463046FFF7D5F90320E3
:101140008002009000200390019502956946304688
:10115000FFF7CAF9C02000903120000401906946D1
:1011600002951248FFF7C0F908206A4631C2694665
:101170003046FFF7B9F9002211460620FFF7ECFAD6
:101180000620FFF7DDFA002211460720FFF7E4FAF8
:101190000720FFF7D5FA06B070BD0000001002402E
:1011A000040C000000040048000800480014004837
:1011B00010B596B000240F941094119412941394C7
:1011C0001C2168461494FFF782F8202107A8FFF736
:1011D0007EF83749374812C0046084603649C460DD
:1011E0004160802101610838FFF7B8FD002801D077
:1011F000FFF76AF9012000030F900FA92D48FFF7B0
:10120000E3FD002801D0FFF75FF92A48FFF7DCFE75
:10121000002801D0FFF758F9139413A92548149416
:10122000FFF76EFD002801D0FFF74EF9602005940E
:101230000194009002940394049400226946069459
:101240001C48FFF759FE002801D0FFF73DF90422A2
:1012500069461848FFF750FE002801D0FFF734F91F
:10126000082269461348FFF747FE002801D0FFF720
:101270002BF90C2269460F48FFF73EFE002801D0EB
:10128000FFF722F901200794400309940C90089479
:101290000A940B9407A90E940648FFF701FD002855
:1012A00001D0FFF711F90348FFF7FCFD16B010BDA0
:1012B000002C0140100000207FBB0000FEE770B54D
:1012C00000240021204600F0CEF80025002000F088
:1012D00028F96D1CEDB2802DF8D3641CE4B2082C03
:1012E000EFD370BD10B5064C012291022046FFF7E6
:1012F000CDF90122D1022046FFF7C8F910BD000048
:1013000000040048F8B50024124E01250746AD023E
:101310008022E24001213A40C9023046FFF7B6F987
:10132000012229463046FFF7B1F90022294630460E
:10133000FFF7ACF9641CE4B2082CE9D3012229467A
:101340003046FFF7A3F9002229463046FFF79EF901
:10135000F8BD00000004004870B501220B4DD40216
:1013600021462846FFF792F9012296023146284687
:10137000FFF78CF9002221462846FFF787F9002263
:1013800031462846FFF782F970BD0000000400488E
:1013900070B50124084DE402002221462846FFF7DB
:1013A00075F9012291022846FFF770F901222146C2
:1013B0002846FFF76BF970BD0004004810B5002106
:1013C0007D22D2000020401C9042FCD3491C914257
:1013D000F8D3FFF787FFAE2000F093F8D52000F098
:1013E00090F8802000F08DF8A82000F08AF83F20C7
:1013F00000F087F8D32000F084F8002000F081F896
:10140000402000F07EF8A12000F07BF8C82000F01A
:1014100078F8DA2000F075F8122000F072F88120D8
:1014200000F06FF8CF2000F06CF8D92000F069F8D8
:10143000F12000F066F8DB2000F063F8302000F0C7
:1014400060F8A42000F05DF8A62000F05AF88D2086
:1014500000F057F8142000F054F8AF2000F051F8D5
:10146000FFF72DFF10BD10B50C46B021084300F06A
:1014700048F82009103000F044F82007000F00F071
:1014800040F810BDF8B5CF004500083FA81E16462D
:10149000F9B2C0B2FFF7E7FF104900243001461847
:1014A0003019FF38FF380238007800F03AF8641C31
:1014B000E4B2082CF4D36D1EF9B2E8B2FFF7D3FF03
:1014C00000243019FF38FF380238007A00F029F87C
:1014D000641CE4B2082CF4D3F8BD000074190008B1
:1014E000F8B515460E460746002406E03019C1B28D
:1014F0003846FFF7C7FF641CE4B22A5D002AF5D125
:10150000F8BD10B50446FFF727FF7820FFF7FAFE75
:101510000020FFF7F7FE2046FFF7F4FEFFF738FF45
:1015200010BD10B50446FFF717FF7820FFF7EAFE5D
:101530004020FFF7E7FE2046FFF7E4FEFFF728FF15
:1015400010BD7047704710B5FFF7ACF810BD30B54F
:1015500091B030216846FEF7BAFE002401200090C9
:1015600001900E94000409900F9400010D9402253F
:101570000A900C9408950B946846FFF7B5F900287B
:1015800001D072B6FEE707200C900E9401210D9554
:101590000F940CA8FFF7E4F8002801D072B6FEE71C
:1015A00011B030BD70470000F0B502681A4B1B4CFB
:1015B000984201D0A04203D17025AA434D682A4326
:1015C000174D184E184F98420AD0A04208D0174C19
:1015D000A04205D0A84203D0B04201D0B84205D104
:1015E0001446032212029443CA6822438024A24371
:1015F0004C69224302608A68C2620A688262984229
:1016000005D0A84203D0B04201D0B84201D1096947
:10161000016301214161F0BD002C01400004004044
:1016200000400140004401400048014000200040CB
:1016300010B5CB06DB0E0121046A99408C4304628D
:10164000016A9A401143016210BD30B58468FF25DC
:101650002D021B021343AC430B432343836030BD75
:10166000826870239A430A4307210A4382607047C5
:10167000F0B5026A520852000262056A4368826944
:101680007024A24392080C689200144302229543EE
:101690008A68164E2A43144DA84207D0B04205D09E
:1016A000134FB84202D0134FB84206D10827BA43AD
:1016B000CF681743042297433A46A84207D0B04266
:1016C00005D00B4DA84202D00A4DA84206D10325F1
:1016D0002D02AB434D691D438B692B4343608461ED
:1016E000496841630262F0BD002C014000400140A6
:1016F000004401400048014070B5026A10239A433B
:101700000262056A4268836973242402A3430C6859
:1017100024021C4320239D438B681B012B43124D45
:10172000A84208D11D46CB688026B5431B012B4338
:101730004025AB4308E00D4DA84205D00C4DA84212
:1017400002D00C4DA84208D10325AD02AA434D6931
:10175000AD0015438A6992002A434260846149685A
:101760008163036270BD0000002C01400040014015
:10177000004401400048014070B5026AFF23013374
:101780009A430262056A4368C2697024A2439208C0
:101790000C68920014430122520295438A68120297
:1017A0002A43124DA84208D11546CA68C614B5434B
:1017B00012022A430515AA4308E00D4DA84205D0A0
:1017C0000C4DA84202D00C4DA84208D103252D0390
:1017D000AB434D692D011D438B691B012B434360B6
:1017E000C4614968C163026270BD0000002C014001
:1017F00000400140004401400048014030B5026A09
:1018000001231B039A430262046A4268C369732579
:101810002D02AB430D682D021D4301235B039C4346
:101820008B681B0323430C4CA04208D00B4CA042F6
:1018300005D00B4CA04202D00A4CA04205D1012495
:10184000A403A2434C69A40122434260C5614968D4
:101850000164036230BD0000002C014000400140E3
:10186000004401400048014030B5036A046A64083E
:10187000640004628469F025AC43120122430A2407
:10188000A3430B438261036230BD30B5036A102469
:10189000A34303628469036A0F252D031203AC433B
:1018A0002243A024A343090119438261016230BD90
:1018B000F8B5040C8BB2264682B25E430D0C10467E
:1018C000370C5843360480190021794116466E437F
:1018D000370C36048019794126466E438919F8BDC4
:1018E0008307FF22DB0E9A408907090E99400028E2
:1018F00008DB830809489B001B18186890430843BD
:10190000186070470007000F0838830804489B00E0
:101910001B18D86990430843D861704700E400E081
:1019200000ED00E0FEF7C6FEFFF711FEFFF7C8FB73
:10193000FFF73EFC00210748FFF76CFB054906480E
:1019400009684863FFF73AFD012104A20846FFF742
:10195000C7FDFEE710000020204E00004F4C45441C
:10196000000000000000000000000000010203046D
:101970000607080900000000000000000000000049
:1019800000000000000000F800000000000000332C
:101990003000000000100C06100C060000000000D3
:1019A0000000000040C07840C0784000043F0404BC
:1019B0003F040400007088FC08300000001820FF7D
:1019C000211E0000F008F000E018000000211C03B8
:1019D0001E211E0000F00888700000001E21232434
:1019E0001927211010160E00000000000000000052
:1019F00000000000000000E01804020000000007E2
:101A00001820400000020418E000000000402018E8
:101A100007000000404080F0804040000202010FBB
:101A200001020200000000F0000000000101011F9F
:101A300001010100000000000000000080B0700003
:101A40000000000000000000000000000001010193
:101A50000101010100000000000000000030300022
:101A600000000000000000008060180400601806FC
:101A70000100000000E010080810E000000F102036
:101A800020100F00001010F8000000000020203F80
:101A9000202000000070080808887000003028240A
:101AA00022213000003008888848300000182020AB
:101AB00020110E000000C02010F8000000070424D0
:101AC000243F240000F80888880808000019212015
:101AD00020110E0000E0108888180000000F11206F
:101AE00020110E0000380808C83808000000003F28
:101AF000000000000070880808887000001C222187
:101B000021221C0000E010080810E0000000312233
:101B100022110F00000000C0C000000000000030D3
:101B20003000000000000080000000000000806025
:101B300000000000000080402010080000010204A6
:101B4000081020004040404040404000040404048D
:101B50000404040000081020408000000020100849
:101B600004020100007048080808F000000000307E
:101B700036010000C030C828E810E000071827240C
:101B800023140B000000C038E0000000203C2302BA
:101B90000227382008F8888888700000203F20201D
:101BA00020110E00C030080808083800071820204F
:101BB0002010080008F808080810E000203F202046
:101BC00020100F0008F88888E8081000203F202027
:101BD0002320180008F88888E8081000203F20001B
:101BE00003000000C0300808083800000718202053
:101BF000221E020008F808000008F808203F210112
:101C000001213F20000808F8080800000020203FBC
:101C10002020000000000808F8080800C08080802C
:101C20007F00000008F888C028180800203F200125
:101C30002638200008F8080000000000203F20207F
:101C40002020300008F8F800F8F80800203F003F96
:101C5000003F200008F830C00008F808203F2000AE
:101C600007183F00E01008080810E0000F102020BF
:101C700020100F0008F808080808F000203F210194
:101C800001010000E01008080810E0000F182424EB
:101C900038504F0008F8888888887000203F20005E
:101CA000030C302000708808080838000038202114
:101CB00021221C00180808F8080818000000203F1E
:101CC0002000000008F808000008F808001F202085
:101CD00020201F000878880000C838080000073856
:101CE0000E010000F80800F80008F800033C0700A7
:101CF000073C0300081868808068180820302C030F
:101D0000032C30200838C800C83808000000203FE5
:101D10002000000010080808C838080020382621D4
:101D200020201800000000FE020202000000007FD8
:101D300040404000000C30C00000000000000001E6
:101D40000638C00000020202FE00000000404040D1
:101D50007F000000000004020202040000000000F6
:101D60000000000000000000000000008080808073
:101D7000808080800002020400000000000000005B
:101D800000000000000080808080000000192422F4
:101D900022223F2008F8008080000000003F112030
:101DA00020110E000000008080800000000E112035
:101DB00020201100000000808088F800000E112013
:101DC00020103F200000808080800000001F222221
:101DD00022221300008080F0888888180020203F8D
:101DE000202000000000808080808000006B9494A0
:101DF0009493600008F8008080800000203F21005C
:101E000000203F2000809898000000000020203F24
:101E100020200000000000809898000000C0808012
:101E2000807F000008F8000080808000203F2402AE
:101E30002D302000000808F8000000000020203F9E
:101E4000202000008080808080808000203F200053
:101E50003F20003F8080008080800000203F2100E4
:101E600000203F200000808080800000001F202094
:101E700020201F00808000808000000080FFA120C3
:101E800020110E000000008080808000000E1120D4
:101E900020A0FF80808080008080800020203F2163
:101EA0002000010000008080808080000033242416
:101EB00024241900008080E0808000000000001FC2
:101EC000202000008080000000808000001F202073
:101ED00020103F20808080000080808000010E3034
:101EE0000806010080800080008080800F300C0395
:101EF0000C300F0000808000808080000020312E98
:101F00000E312000808080000080808080818E7073
:101F10001806010000808080808080000021302C25
:101F20002221300000000000807C0202000000003E
:101F3000003F404000000000FF00000000000000E3
:101F4000FF0000000002027C800000000040403FD3
:101F5000000000000006010102020404000000006D
:101F600000000000841F0008000000201000000096
:101F7000F8000008941F000810000020A8060000C8
:101F8000140100080100000004000000000000002F
:041F900000127A00C1
:04000005080000B53A
:00000001FF
