:020000040800F2
:10000000B806002059010008F91100081310000873
:1000100000000000000000000000000000000000E0
:10002000000000000000000000000000FD110008BA
:100030000000000000000000FB110008FF11000894
:100040006B010008000000006B0100086B01000854
:100050006B0100086B01000897040008A104000868
:10006000000000006B0100086B0100086B01000834
:100070006B0100086B0100086B0100080000000024
:100080006B0100086B010008000000006B01000814
:100090006B0100086B0100086B0100086B01000890
:1000A0006B0100086B0100086B0100086B01000880
:1000B0006B01000800F002F800F03EF80CA030C818
:1000C000083824182D18A246671EAB4654465D46D4
:1000D000AC4201D100F030F87E460F3E0FCCB64660
:1000E0000126334200D0FB1AA246AB4633431847E1
:1000F000F814000018150000103A02D378C878C12F
:10010000FAD8520701D330C830C101D504680C6059
:10011000704700000023002400250026103A01D378
:1001200078C1FBD8520700D330C100D50B607047AF
:100130001FB51FBD10B510BD00F07BF91146FFF7CC
:10014000F7FF01F03FFA00F093F903B4FFF7F2FF75
:1001500003BC00F099F900000748804707480047B2
:10016000FEE7FEE7FEE7FEE7FEE7FEE70448054997
:10017000054A064B704700005D120008B5000008F4
:10018000B8000020B8060020B8020020B802002005
:10019000FEB5054610460C46184373D0AE468C4655
:1001A0000020AD1A01469C4167D366460027012412
:1001B0003D46B61A9D4102D313463A462124654670
:1001C00076462F04360C3E432D0CB61A9D4104D3BF
:1001D000150C1B042B4312041034654676462F067B
:1001E000360A3E432D0AB61A9D4104D3150E1B0252
:1001F0002B4312020834654676462F0736093E43E4
:100200002D09B61A9D4104D3150F1B012B43120172
:10021000241D65467646AF07B6083E43AD08B61ABC
:100220009D4104D3950F9B002B439200A41C65466F
:100230007646EF0776083E436D08B61A9D411AD3FD
:1002400092185B41641C16E00018764665464941E9
:10025000B71A9D410191009009D36046B11A9841A7
:100260008E468446009801990025401C6941DD07AF
:1002700052082A435B08641EE6D57246634603B003
:10028000F0BDFFE700200146C046C0462A4623468F
:10029000F5E701E004C0091F0429FBD28B0701D553
:1002A0000280801CC90700D00270704700290BD063
:1002B000C30702D00270401C491E022904D38307E1
:1002C00002D50280801C891EE3E70022EEE70022AF
:1002D000DFE7002203098B422CD3030A8B4211D3A0
:1002E00000239C464EE003460B433CD400224308C7
:1002F0008B4231D303098B421CD3030A8B4201D3B7
:1003000094463FE0C3098B4201D3CB01C01A52414E
:1003100083098B4201D38B01C01A524143098B429E
:1003200001D34B01C01A524103098B4201D30B0187
:10033000C01A5241C3088B4201D3CB00C01A5241AC
:1003400083088B4201D38B00C01A524143088B4271
:1003500001D34B00C01A5241411A00D2014652410A
:10036000104670475DE0CA0F00D04942031000D329
:100370004042534000229C4603098B422DD3030A7E
:100380008B4212D3FC22890112BA030A8B420CD38E
:10039000890192118B4208D3890192118B4204D3B7
:1003A00089013AD0921100E08909C3098B4201D337
:1003B000CB01C01A524183098B4201D38B01C01A71
:1003C000524143098B4201D34B01C01A52410309E8
:1003D0008B4201D30B01C01A5241C3088B4201D397
:1003E000CB00C01A524183088B4201D38B00C01A44
:1003F0005241D9D243088B4201D34B00C01A52411B
:10040000411A00D20146634652415B10104601D3A7
:100410004042002B00D54942704763465B1000D331
:10042000404201B50020C046C04602BD704770473B
:100430007047754600F024F8AE46050069465346FD
:10044000C008C000854618B020B5FFF78FFE60BC1D
:1004500000274908B6460026C0C5C0C5C0C5C0C5EE
:10046000C0C5C0C5C0C5C0C5403D49008D46704728
:1004700010B50446C046C0462046FFF766FE10BDD4
:10048000004870475800002001491820ABBEFEE725
:1004900026000200704710B5082000F019F810BDC2
:1004A00010B5402000F014F8802000F011F8012071
:1004B000400300F00DF80120800300F009F801204E
:1004C000C00300F005F810BD72B6FEE770470000EB
:1004D00010B504494A69024202D04861FFF7F6FFAD
:1004E00010BD000000040140F8B5002303240125DD
:1004F000BAE02E469E40B44632407CD00E79B60714
:10050000B60F012E01D0022E17D186682746B646B7
:100510005E00B74000967646BE43B646CF68009E62
:10052000B74076463743876046686746BE430F79D3
:10053000FF06FF0F9F40374347600E79F643B6072B
:100540000ED0C6682746B4465E00B646B74066463B
:10055000BE43B4468F687646B74066463743C760A9
:100560000E79B607B60F022E14D1DE08B600361883
:100570000096366A5F07B446FE0E0F27B646B740B0
:100580006646BE43B4460F697646B7406646374373
:10059000009E376206682746B4465E00B646B740FE
:1005A0006646BE430F79B446BF07BF0F7646B740D5
:1005B0006646374307604E68B603B60F53D02D4FDB
:1005C000BE692E43BE61BE699F08F607F60F2A4E2C
:1005D000BF00BE190096B6680F27B4469E07360FB7
:1005E000B646B7406646BE430927FF06B446B84242
:1005F00002D1002710E036E0204FB84201D1012798
:100600000AE01F4FB84201D1022705E01D4FB84252
:1006100001D1032700E005277646B74066463743F9
:10062000009EB760184E36684F689643FF0300D5AA
:100630001643154F3E607E684F689643BF0300D552
:100640001643114F7E60BE684F689643FF0200D587
:1006500016430D4FBE60FE684F689643BF0200D53B
:100660001643094AD6605B1C0A681646DE4000D075
:100670003FE7F8BD001002400000014000040048C0
:1006800000080048000C004800040140002A01D086
:10069000816170478162704701488068704700003F
:1006A0000000002002488168027889188160704744
:1006B0000000002010B506480168102211430160B7
:1006C000032000F007F800F027F8002010BD00001C
:1006D0000020024070B504460D4D7D202978C000F1
:1006E000FFF7F7FD01460B480068FFF7F2FD00F049
:1006F000BFFA002809D1042C07D200222146401E4F
:1007000000F02AF800206C6070BD012070BD000070
:10071000000000200C00002008B508488169012273
:1007200011438161816911400091C26901040A434A
:10073000C261C0690840009008BD0000001002407E
:10074000002805DBC106C90E012088400149086068
:100750007047000000E100E010B500F011FF10BD8F
:10076000F8B50F46060059D03A4D2868C007C00FAB
:10077000B84209D2286840084000384328602868F9
:10078000C007C00FB84249D13068334C81070CD53F
:10079000400704D56068072109020843606060686B
:1007A000F0218843B168084360603078C00726D0E4
:1007B000706801280ED0216802280ED08907002910
:1007C0002CDA61688908890001436160FFF764FFE2
:1007D00000900DE021688903F1E78901EFE7FFF759
:1007E0005BFF0099411A1D48814201D90320F8BDE1
:1007F00060680C210840716889008842EFD1286840
:10080000C007C00FB8420BD92868400840003843E1
:1008100028602868C007C00FB84201D00120F8BD89
:100820003078400706D56068072109028843F168DF
:100830000843606000F018F86168094A0906090F6A
:10084000515CC840074908600320FFF743FF0020C0
:10085000F8BD000000200240001002408813000094
:10086000D61500080C00002010B514A30FCB88B0DB
:100870006C460FC415A30FCB0FC4184A51680C2047
:100880000B4603401648042B16D0082B14D18B02BC
:100890001B0F6C46E45CD26A04AB1207120F9A5C21
:1008A000C90305D500231946FFF772FC214601E074
:1008B00020460C4900F04CFE08B010BD02030405B0
:1008C000060708090A0B0C0D0E0F10100102030495
:1008D00005060708090A0B0C0D0E0F100010024048
:1008E00000127A0000093D00FEB5040070D02078A7
:1008F000DC4DC0074AD068680007800F012807D088
:1009000068680007800F022809D16868C00306D50F
:10091000286880033AD560680028E7D036E061682F
:10092000012914D001208004002901D0052914D008
:100930002A68012109048A432A60296881432960C1
:100940006068002816D0FFF7A7FE06460EE028686C
:100950000121090408432860F2E72968014329605E
:10096000F5E7FFF799FE801B64286ED8286880039E
:10097000F7D50BE0FFF790FE064604E0FFF78CFE8C
:10098000801B6428F1D828688003F7D420780126DA
:10099000800700283CDA68680007800F07D0686885
:1009A0000007800F022809D16868C00306D42868B0
:1009B000800716D5E06801280AD112E0E068002817
:1009C000286816D030432860FFF766FE074605E02A
:1009D00043E1FFF761FEC01B0228C6D828688007E4
:1009E000F7D52868F82188432169C90008432860A1
:1009F0000EE0400840002860FFF74EFE074604E086
:100A0000FFF74AFEC01B0228AFD828688007F7D43A
:100A10002078000722D5E0690028686A0ED03043AC
:100A20006862FFF739FE074604E0FFF735FEC01B9A
:100A300002289AD8686A8007F7D50FE0400840007E
:100A40006862FFF729FE074605E09DE0FFF724FEF8
:100A5000C01B022889D8686A8007F7D42078042749
:100A60004007002860DA00200190E869C00008D43F
:100A7000E969B8060143E961E96901400120009193
:100A8000019079480168C90511D4016882151143A4
:100A90000160FFF701FE009005E0FFF7FDFD009902
:100AA000401A642870D870480068C005F5D5A06861
:100AB00001280AD0002801D0052810D0286A400853
:100AC00040002862286AB84301E0286A304328625F
:100AD000A068002812D0FFF7DFFD00900AE0286A26
:100AE00038432862F1E7FFF7D7FD0099411A5F48C4
:100AF000814249D8286A8007F5D50DE0FFF7CCFD83
:100B0000009006E0FFF7C8FD0099411A574881425E
:100B10003AD8286A8007F5D40198002804D0E969FA
:100B2000012000078143E9612078C00635D560695E
:100B300001280CD0401D686B23D038436863686B74
:100B4000400840006863FFF7A7FD064622E0686B97
:100B500038436863686B30436863FFF79DFD064662
:100B600004E0FFF799FD801B02285BD8686B8007C3
:100B7000F7D5686BF8218843A169C9000843686309
:100B80000BE0B8436863F4E74CE0FFF785FD801B9A
:100B9000022847D8686B8007F7D4206A00285ED007
:100BA00069680907890F022942D001263606022802
:100BB000286805D0B0432860FFF76EFD044633E097
:100BC000B0432860FFF768FD074604E0FFF764FDC7
:100BD000C01B022826D828688001F7D4E86AE16A99
:100BE000000900010843E862616AA06A0843696875
:100BF0003D2212049143084368602868304328600E
:100C0000FFF74AFD044604E0FFF746FD001B0228FB
:100C100008D828688001F7D521E0FFF73DFD001BCB
:100C2000022801D90320FEBD28688001F5D416E012
:100C30000128F8D06868E96A01221204636A024058
:100C40009A420AD10907E26A090F914205D10F21A0
:100C500089040840A16A884201D00120FEBD00201D
:100C6000FEBD00000010024000700040881300002C
:100C7000094910B5401E884201D9012010BD074C1A
:100C800060610321081F00F07BFC0020A0610720A9
:100C90002061002010BD0000FFFFFF0000E000E029
:100CA00030B5034620331A7F012A26D001221A7755
:100CB0000325CA682D02AA438D6800242A43012512
:100CC000AD02AA434D6800682A430125ED02AA43FC
:100CD0000D682A4301252D03AA430D692A430125E6
:100CE0006D03AA434D69C9692A430125AD03AA438F
:100CF0000A4342641C77002030BD022030BD000052
:100D0000F0B502462032137F012B1ED00125157746
:100D10000223537706687468B3687027BC430F6872
:100D20002743776000680A4CA04205D0094CA042D6
:100D300002D0094CA04204D180244968A34319433E
:100D40008160557700201077F0BD0220F0BD0000D3
:100D5000002C0140000400400040014070B5040038
:100D600005D025462035687F002802D006E0012006
:100D700070BD00202877204600F014F80220687724
:100D8000211D206800F06CFA01204034A071A87782
:100D9000E87720706070A070E070207160716877F3
:100DA000002070BD08B500680549884207D1054894
:100DB0008269C1140A43826180690840009008BDBD
:100DC000002C014000100240F8B5054604462035CD
:100DD000287F0026012817D0012028770220687775
:100DE000226890687727FF23B8431B0298439060DE
:100DF0000868502838D00EDC20284FD006DC0028A8
:100E00004CD010281ED149E00220F8BD302845D032
:100E1000402817D13AE060282ED0702819D001223E
:100E20001203801A0FD090420CD1CB684A688968AF
:100E3000206800F059FA206881680122920311436A
:100E4000816000E001260120687700202877304685
:100E5000F8BDCB684A688968206800F045FA2168C7
:100E6000886838438860EEE7CA684968206800F0FF
:100E70004BFB5021206806E0CA684968206800F0F2
:100E800054FB6021206800F03AFADCE7CA68496840
:100E9000206800F039FB40212068F4E72268014611
:100EA0001046F0E710B586B0044614216846FFF7F7
:100EB0000EFA0F492068884217D10E484269012175
:100EC00049040A4342614069084005900F2000022E
:100ED00000900220002102910190032104900391CF
:100EE00009206946C006FFF7FFFA06B010BD0000F2
:100EF000002C014000100240F8B50646044620369A
:100F0000307F00270D4601280ED001203077002ABF
:100F10000CD0042A1BD0082A2FD00C2A3ED001273F
:100F2000002030773846F8BD0220F8BD206800F078
:100F3000EFF9206881690822114381612068826984
:100F400004218A438261206881692A6912E020684D
:100F500000F022FA206882690121C9020A438261F5
:100F60002068816901229202914381612068816930
:100F70002A69120211438161D2E7206800F04CFA1D
:100F80002068C16908221143C1612068C269042137
:100F90008A43C2612068C1692A6912E0206800F0B2
:100FA0007DFA2068C1690122D2021143C161206823
:100FB000C269012189028A43C2612068C1692A6924
:100FC00012021143C161ABE770B5040005D025469C
:100FD0002035687F002802D006E0012070BD002087
:100FE0002877204600F014F802206877211D206839
:100FF00000F036F901204034A071A877E87720701E
:101000006070A070E070207160716877002070BD22
:101010007047FEE7F0B587B014216846FFF757F92F
:101020002D4842690121C9040A43426142690A40CC
:1010300005924269C9000A43426142690A40059229
:10104000426909110A43426142690A4005924269B4
:1010500049100A4342614069204E0840204F0590E4
:10106000012231463846FFF711FB072021244003B7
:10107000240401256A4631C269461A48FFF734FA4A
:101080000320039001956946009602953846FFF7C4
:101090002BFAC0200090312000040190694602958F
:1010A0001148FFF721FA08206A4631C269463846DE
:1010B000FFF71AFA002211460620FFF74DFB062023
:1010C000FFF73EFB002211460720FFF745FB0720F4
:1010D000FFF736FB07B0F0BD00100240040C000023
:1010E00000040048000800480014004810B596B0FD
:1010F00000240F9410941194129413941C216846A8
:101100001494FFF7E4F8202107A8FFF7E0F8374927
:10111000374812C0046084603649C4604160802151
:1011200001610838FFF71AFE002801D0FFF7CCF95B
:10113000012000030F900FA92D48FFF745FE00285E
:1011400001D0FFF7C1F92A48FFF73EFF002801D080
:10115000FFF7BAF9139413A925481494FFF7D0FDAB
:10116000002801D0FFF7B0F96020059401940090A9
:101170000294039404940022694606941C48FFF7E5
:10118000BBFE002801D0FFF79FF9042269461848EA
:10119000FFF7B2FE002801D0FFF796F90822694652
:1011A0001348FFF7A9FE002801D0FFF78DF90C22A4
:1011B00069460F48FFF7A0FE002801D0FFF784F929
:1011C00001200794400309940C9008940A940B940E
:1011D00007A90E940648FFF763FD002801D0FFF72A
:1011E00073F90348FFF75EFE16B010BD002C0140F6
:1011F000100000207FBB0000FEE77047704710B56D
:10120000FFF750FA10BD30B591B030216846FFF7B6
:101210005EF800240120009001900E9400040990D3
:101220000F9400010D9402250A900C9408950B94DC
:101230006846FFF759FB002801D072B6FEE7072089
:101240000C900E9401210D950F940CA8FFF788FACD
:10125000002801D072B6FEE711B030BD7047000023
:10126000F0B502681A4B1B4C984201D0A04203D142
:101270007025AA434D682A43174D184E184F9842BF
:101280000AD0A04208D0174CA04205D0A84203D0F3
:10129000B04201D0B84205D1144603221202944351
:1012A000CA6822438024A2434C69224302608A68B0
:1012B000C2620A688262984205D0A84203D0B04256
:1012C00001D0B84201D10969016301214161F0BD3A
:1012D000002C014000040040004001400044014057
:1012E000004801400020004030B58468FF252D02F1
:1012F0001B021343AC430B432343836030BD82681E
:1013000070239A430A4307210A4382607047000012
:10131000F0B5026A520852000262056A43688269A7
:101320007024A24392080C68920014430222954351
:101330008A68164E2A43144DA84207D0B04205D001
:10134000134FB84202D0134FB84206D10827BA4310
:10135000CF681743042297433A46A84207D0B042C9
:1013600005D00B4DA84202D00A4DA84206D1032554
:101370002D02AB434D691D438B692B434360846150
:10138000496841630262F0BD002C01400040014009
:10139000004401400048014070B5026A10239A439E
:1013A0000262056A4268836973242402A3430C68BD
:1013B00024021C4320239D438B681B012B43124DA9
:1013C000A84208D11D46CB688026B5431B012B439C
:1013D0004025AB4308E00D4DA84205D00C4DA84276
:1013E00002D00C4DA84208D10325AD02AA434D6995
:1013F000AD0015438A6992002A43426084614968BE
:101400008163036270BD0000002C01400040014078
:10141000004401400048014070B5026AFF230133D7
:101420009A430262056A4368C2697024A243920823
:101430000C68920014430122520295438A681202FA
:101440002A43124DA84208D11546CA68C614B543AE
:1014500012022A430515AA4308E00D4DA84205D003
:101460000C4DA84202D00C4DA84208D103252D03F3
:10147000AB434D692D011D438B691B012B43436019
:10148000C4614968C163026270BD0000002C014064
:1014900000400140004401400048014030B5026A6C
:1014A00001231B039A430262046A4268C3697325DD
:1014B0002D02AB430D682D021D4301235B039C43AA
:1014C0008B681B0323430C4CA04208D00B4CA0425A
:1014D00005D00B4CA04202D00A4CA04205D10124F9
:1014E000A403A2434C69A40122434260C561496838
:1014F0000164036230BD0000002C01400040014047
:10150000004401400048014030B5036A046A6408A1
:10151000640004628469F025AC43120122430A246A
:10152000A3430B438261036230BD30B5036A1024CC
:10153000A34303628469036A0F252D031203AC439E
:101540002243A024A343090119438261016230BDF3
:10155000F8B5040C8BB2264682B25E430D0C1046E1
:10156000370C5843360480190021794116466E43E2
:10157000370C36048019794126466E438919F8BD27
:101580008307FF22DB0E9A408907090E9940002845
:1015900008DB830809489B001B1818689043084320
:1015A000186070470007000F0838830804489B0044
:1015B0001B18D86990430843D861704700E400E0E5
:1015C00000ED00E0FFF776F8FFF71DFEFFF722FDC4
:1015D000FFF78CFDFEE700000000000000000102A4
:1015E0000304060708090000081600080000002090
:1015F00010000000F8000008181600081000002075
:10160000A80600001401000801000000040000000A
:081610000000000000127A0046
:04000005080000B53A
:00000001FF
